:10174600EF1FAA0670011E4A6013E4FCFDC3ED9468
:0D1756007DEC940050EA0DBD00010C80F008
:011763002263
:10172700C2A27F647E00EF1F70011EEF4E70F7D2DA
:0E173700A27E007F04EF1F70011EEF4E70F7C0
:011745002281
:1017B70020A2FDA2A2B340FB7F047E00EF1F7001B1
:0517C7001EEF4E70F75B
:0117CC0022FA
:1016E200C2A20FBF0000D2A20FBF00000FBF0000B6
:1016F200A2A292097E007F08EF1F70011EEF4E70BA
:03170200F7A20942
:0117050022C1
:10176400E4FD7C011216E2E433FFC43333335480C6
:0D177400FEEDC3134EFD0CECB409E9AF050A
:011781002245
:0F15D1001217271217B77F017E001217467FCC23
:0215E000A90759
:1015E2007F01E9139209E9C313F930091BC2A20B67
:1015F200BB00000BBB0000D2A27A007B08EB1B7081
:10160200011AEB4A70F7801BC2A27A007B08EB1B1F
:1016120070011AEB4A70F7D2A20BBB00010A0BBB96
:0816220000010A0FEFB409BA40
:01162A00229D
:080016001215D17F440215E030
:10132F00900036120684000000001215D17FBE1205
:10133F0015E012176490008FEFF0121764A3EFF00F
:10134F00A3E4F0A3EFF0E07F00FE900091F0A3EF95
:10135F00F090008FE0FDEDFF900091EEF0A3EFF025
:10136F00AC06E4120231E4FBFA7980783D120126D3
:10137F00900036120678E4FFFE7D207C4190003607
:10138F00E0F8A3E0F9A3E0FAA3E0FB120126E4FBE7
:10139F00FAF9783F12003512026A900091EEF0A32D
:0213AF00EFF05D
:0113B1002219
:1017CD007F017E001217461200167FE87E03121766
:0517DD004612132F224B
:10181F003F065B4F666D7D077F6F777C395E797111
:08151900900036EEF0A3EFF0A4
:10152100758CB8E4F58AD28CFFFE308D0DC28D75B5
:101531008CB8E4F58A0FBF00010ED2A77580FEC2F8
:10154100A7900036A3E090181F93F580D2A6C2A6FB
:10155100E4F580D2A6C2A6D2A77580FDC2A7ED93FD
:10156100F580D2A6C2A6E4F580D2A6C2A6BE03BA71
:04157100BFE8B722F6
:08157500900030EEF0A3EFF04E
:10157D00758CB8E4F58AD28CFFFE308D0DC28D7559
:10158D008CB8E4F58A0FBF00010ED2A77580FEC29C
:10159D00A7900030A3E090181F93F580D2A6C2A6A5
:1015AD00E4F580D2A6C2A6D2A77580FDC2A7ED93A1
:1015BD00F580D2A6C2A6E4F580D2A6C2A6BE03BA15
:0415CD00BFE8B7229A
:1017E2002B2B2B0041542B525354460D0A004154CB
:0517F2002B5A0D0A0056
:0A170600420095000042009300012C
:10182F007590FFD292D29575880575A885C2B6229C
:10178200D3EF9400EE940040147D827C00ED1D7036
:0D179200011CED4C70F7EF1F70E61E80E3A8
:01179F002227
:03000300021431B3
:10143100C0E0C083C082C0D075D000C004C005C068
:1014410006C00720B2537F327E0012178220B249B4
:1014510090008BE4F0A304F075CB6875CA00D2CA82
:10146100D2AD900095E4F0A3F0C390008EE0943CDF
:1014710090008DE09400500EA3E02405F090008DC3
:10148100E03400F0800790008DE4F0A3F030B2FD6D
:10149100D2A4900093E4F0A3F0D007D006D005D0F9
:0A14A10004D0D0D082D083D0E03216
:030013000214AB29
:1014AB00C0E0C0F0C083C082C0D075D000C000C007
:1014BB0001C002C003C004C005C006C00720B3337F
:1014CB007F327E0012178220B3297BFF7A1779E2D5
:1014DB001207B47FE87E031217827BFF7A1779E637
:1014EB001207B47FE87E031217827BFF7A1779F01D
:1014FB001207B4D007D006D005D004D003D002D049
:0E150B0001D000D0D0D082D083D0F0D0E0321A
:03002B0002166F4B
:10166F00C0E0C083C082C2CF900096E004F0700645
:10167F00900095E004F0900095E07004A3E06428DA
:10168F007016B295900095F0A3F090008AE004F0E8
:0F169F007006900089E004F0D082D083D0E03252
:071710004200690000C11452
:1017A000759850758920758DFA758780D28EC2AB79
:0717B000D2ACD2BCD2AF2283
:030023000213B213
:1013B200C0E0C083C082C0D0309907900068E4F0DA
:1013C200C299309861C298900069E0A3E0246BF55D
:1013D20082E43400F583E599F090006AE004F0704D
:1013E20006900069E004F0900069E0A3E0246AF549
:1013F20082E43400F583E0640A600C900069E070D6
:1014020004A3E0641D701F759840900069E0A3E09A
:10141200246BF582E43400F583E4F0D21490006981
:0F142200F0A3F0759850D0D0D082D083D0E032B4
:0F183F008F999000687401F0900068E070FA22B1
:10162B0063757272656E74706C25640D0A00686563
:10163B006174696D650025640068656174696D6529
:10164B007365740D0A006572726F720D0A0068651E
:10165B006174696D6525640D0A00039F250D994919
:04166B00411F010911
:0F17170042008B000042008D000042008900005C
:101215001217CD900030EEF0A3EFF07C007D0A129E
:1012250005FBAB07AA067C007D0A1205A6A3EEF016
:10123500A3EFF07C007D0AAF03AE021205A6A3EC76
:10124500F0FEA3EDF0FF900032E0FCA3E0FD1215E7
:10125500197BFF7A16792B900030E0FFA3E0900010
:101265003BCFF0A3EFF01207B41217CD900030EE8C
:10127500F0A3EFF07C007D0A1205FBAA06AB077C04
:10128500007D0A1205A6A3EEF0A3EFF0AE02AF03B0
:0D1295007C007D0A1205A6A3ECF0A3EDF08D
:0112A2002229
:0B10CB00900030EBF0A3EAF0A3E9F086
:1010D60090003B74FFF0A37416F0A37439F012105D
:1010E6000CEA494B700302117990008BE4F0A304DB
:1010F600F0900030E0FBA3E0FAA3E0F990000712BD
:101106000567900033F0900008120567900034F0F0
:10111600E4A3F090003B74FFF0A37416F0A37441AF
:10112600F0A37401F0A37400F0A37436F07B017A87
:10113600007933120C55900036E0FFA3E090008D45
:10114600CFF0A3EFF090008DE07002A3E07004C230
:10115600A4801275CB68E4F5CAD2CAD2AD900095C8
:10116600F0A3F0D2A47BFF7A1679441207B47E006E
:0F1176007F01227BFF7A1679511207B4E4FEFF46
:011185002247
:1016AE0090008DE0FEA3E0FF7C007D0A1205A6AB44
:1016BE0007AA0690008DE0FEA3E0FF7C007D0A12D3
:1016CE0005A6E490008BF0A3F0AE04AF05AC02AD1E
:0416DE000302157579
:1011860012182F1217A0C290C2A475E13790008DD5
:10119600E0FEA3E0FFC390008AE09F900089E09EF6
:1011A6004013C2A4C2CAC2ADE490008DF0A3F09071
:1011B6000089F0A3F0900093E07002A3E070207B1A
:1011C600FF7A16795990008DE0FFA3E090003BCF9F
:1011D600F0A3EFF01207B4900093E4F0A304F0300C
:1011E600140B7B017A00796B1210CBC21490008B22
:1011F600E0FEA3E0FFEE700EEF14600504700780BA
:0F120600051216AE800312121575E1370211930F
:10002E000202D6E86480F8E933E83360110460F028
:10003E00ED33EC337009E8FCE9FDEAFEEBFF220438
:10004E0060DED3EB9FEA9EE99DE8C2E78CF0C2F733
:10005E0095F0400CE8CCF8E9CDF9EACEFAEBCFFBFF
:10006E001202A185D0F05804700320D5B3E80470B5
:10007E00075002B2D50202E092D5EC0460F7E4CC50
:10008E00C0E0C398F8603B94186008400DD0E0FBC8
:10009E000202B8E4FBFAC9FC8028E830E406E4C9A1
:1000AE00FBE4CAFCE830E305E4C9CACBFCE854071C
:1000BE006010F8C3E913F9EA13FAEB13FBEC13FC27
:1000CE00D8F130F52FC3E49CFCEF9BFFEE9AFEEDCA
:1000DE0099FDD0E0FBEF4E4D4C701222DB03020275
:1000EE00DDEC2CFCEF33FFEE33FEED33FDED30E7B0
:1000FE00EB0202B8EF2BFFEE3AFEED39FDD0E0FB3E
:10010E0050130BBB00030202E0ED13FDEE13FEEFE6
:08011E0013FFEC13FC0202B810
:10012600EC4D6011E8497017ED33EC3304600DE4D3
:10013600FCFFFEFD22E933E8330470F80202D61212
:1001460002A158046009E4CC248150062850090213
:1001560002E02840030202DDC0E0EB4A7044B980A9
:1001660006D0E0FB0202CCEF4E701CBD8008EBFF10
:10017600EAFEE9FD80EBE98DF0A4FEE5F002020F50
:10018600E9CDF9EAFEEBFFEF89F0A4FCE5F0CE89B4
:10019600F0A42EFFE435F0CD89F0A42DFEE435F071
:1001A6008067EF4E7005BD80D780C3EF8BF0A4AC9F
:1001B600F0EE8BF0A42CFCE435F0F8EF8AF0A42CDA
:1001C600E5F038FCE433CB8DF0A42CFCE5F03BF8ED
:1001D600EE8AF0A42CFCE5F038F8E433CF89F0A4DD
:1001E6002CFCE5F038CF3400CE89F0A42FFFE5F0E3
:1001F6003EFEE433C98DF0A42EFEE5F039CD8AF03B
:10020600A42FFFE5F03EFEE43DFD33D0E0FB5007B2
:100216000BBB000F0202E0EC2CFCEF33FFEE33FECB
:06022600ED33FD0202B8F9
:10022C0075F020800E75F010800575F0087D007E4D
:10023C00007F003392D530D503120650EC334010BA
:10024C00EF33FFEE33FEED33FDEC33FCD5F0ED2256
:0E025C00E5F0247EA2D513CC92E7CDCEFF2292
:10026A00EDD2E7CD33EC3392D524814006E4FFFE8C
:10027A00FDFC22FCE4CFCECDCC24E0501174FF80EB
:10028A00EDC3CC13CCCD13CDCE13CECF13CF047088
:07029A00F030D5DE02065032
:10074900E50D243BF582E43400F583E0050D2290A4
:10075900003830100390003BE475F0011206BE0228
:10076900054E2009E97F2ED2098018EF540F2490F5
:10077900D43440D4FF300D0BEF24BFB41A0050031A
:100789002461FFE50E6002150E0511E511700205E1
:100799001030100E900038E475F0011206BEEF0219
:1007A900059402183F7403D2108003E4C210F50DBA
:1007B9009000381206ECE4F50EF510F511E50E601F
:1007C900077F2012078C80F5750FFFC20AC209C284
:1007D9000BC20CC20EC20FC211120758FF700D30A6
:1007E90010057F0012079DAF11AE1022B4255FC21C
:1007F900D5C20D120758FF24D0B40A00501A75F05B
:100809000A780E30D50508B6FF0106C6A426F620DB
:10081900D5047002D20C80D924CFB41A00EF500449
:10082900C2E5D20D020A8FD20A80C6D20980C0D28F
:100839000B80BCD2D580BAD20E80B47F2012078C2F
:10084900200B077401B50E0040F1120749FF12078A
:100859008C0207C6D211D20F8095120749FB1207E5
:1008690049FA120749F94A4B7006798D7A0B7BFFD1
:10087900200B2EE50E602A7E008E827583001205FC
:100889006760060EEE650F70F0C2D5EBC0E0EAC0F6
:10089900E0E9C0E0EE120AF0D0E0F9D0E0FAD0E0E9
:1008A900FB12054EFF60AAEBC0E0EAC0E0E9C0E038
:1008B90012078CD0E02401F9D0E03400FAD0E0FB33
:1008C900E50F0460DCD50FD98087D20B80A2120A0C
:1008D900D260F7E50F7001041202EBA90F600DE574
:1008E9000F600914F50F120B7AEF60F3EA30E70293
:1008F900F404C3995079EAF4250F0430E701E404BC
:10090900F50F800D120AD260C1EA050F250F1202F8
:10091900EBEA900067F030E701E4250F04D50F04F6
:10092900200E0114120AF0E4C0E0120B7A9000675D
:10093900E0601320E70714F0120774802204F0D056
:10094900E014C0E07F00120774E50F600712076B1F
:10095900150F800B300E0312076BD0E00207C6D0CB
:10096900E00480C4120AD2609EE50F041202EB90E3
:100979000067EAF0E50F200E026001042404120A60
:01098900F07D
:10098A0074FF04C0E0120B7A120774E50F200E02FE
:10099A00600312076BD0E0B50FE87F4512077E901F
:1009AA000067E07F2B30E7047F2DF404C0E01207D4
:1009BA008CD0E075F00A84C0F0120775D0E01207F7
:1009CA00750207C6791080027908C20FC211800821
:1009DA00D2D5790A8004790AC2D5E50F047002F5E6
:1009EA000FE4FAFDFEFF120749FC7B08200A1312E6
:1009FA000749FD7B1030090A120749FE120749FF11
:100A0A007B20EC3382D592D55013C3E43009069F7C
:100A1A00FFE49EFEE4200A039DFDE49CFCE4CBF87F
:100A2A00C20AEC700CCFCECDCCE824F8F870F38073
:100A3A0017C3EF33FFEE33FEED33FDEC33FCEB333C
:100A4A00FB994002FB0FD8E9EB300A05F8D0E0C465
:100A5A0048B20AC0E00AEC4D4E4F78207B0070C2C3
:100A6A00EAB50F0040BCC0E0120AF2D0F0D0E02094
:100A7A000A04C4C0E0C4B20AC0F0120775D0F0D5A7
:100A8A00F0EB0207C61206F508635309CE5808347C
:100A9A004C08304209D24F09DA4409DA4908494375
:100AAA0009E055090D46096D4508D7470BAD5008B1
:100ABA00382D083C2E085F2B084023085D200B9632
:100ACA002A07F84800000857E50FB4FF03750F0618
:100ADA00120749FC120749FD120749FE120749FF8E
:100AEA00900060020328790AA2D5200C14300E095E
:100AFA00B910020404B9080104A2D5200F0250015A
:100B0A0004200B68920BB50E005034C0E07F2030F1
:100B1A000C197F30A20B720F720E500F120B49C2C2
:100B2A000BC20FC20EC2117F30800F300E03E9C014
:100B3A00E012078C300E03D0E0F9D0E0B50ECC30CD
:100B4A000E177F30B9100C12078C7F58300D077FB3
:100B5A00788003B9080312078C300B057F2D020732
:100B6A008C7F202011F87F2B200FF322920B80CF4D
:100B7A007F00B40700500B2460F582E43400F5834B
:100B8A00E0FF22286E756C6C2900D20A12074930E0
:100B9A000AF8C20A780E30D50108F60207F82D5075
:100BAA004349581207492403B405004001E4900B55
:100BBA00A89312077D743A12077DD20C750E0402AF
:020BCA0009CE52
:100BCC00E50D300C0104F82328243BF582E43400B5
:100BDC00F58322900038300C0390003BE475F00153
:100BEC001206BE02054E60EAC5117002151014C53E
:100BFC0011200C04FF02184E90003874FFF5F0021F
:100C0C0006D5FF02180BE50E6006D50E037F0022F9
:100C1C00200C0F1217F7EF60080511E51170020593
:100C2C0010229000381206B512054EFF60E89000B5
:100C3C0038E475F0011206BE80DC120C1CEFC0E02B
:100C4C00120C0ED0E040F3809DD20C8002C20C90AE
:100C5C0000381206ECE4F50FF50DF510F511750ED4
:100C6C0000C20BC209C20AC20D120BDFFF7005AF26
:100C7C000F7E0022B42530120BDFFF24D0B40A0003
:100C8C00500C75F00AC50EA4250EF50E80E924CF84
:100C9C00B41A00EF5002C2E5020EF2D20A80D8D28A
:100CAC000980D4D20D80D0EF120C0E5008120C46D5
:100CBC00EF600E80A9EFC0E0120C1CD0E06F609EBC
:100CCC00EF6074120BF280A7120C1CEF6069E50E3A
:100CDC007007050E8003120C1CEF6014200D0E1211
:100CEC000BCCE475F0011206BEEF120594D50EE69E
:100CFC00200D04050D050F80BA120C12EFC0E01286
:100D0C000C0ED0E05004120BF2E4FF200D0E120B6F
:100D1C00CCE475F0011206BEEF120594EF70DA20E8
:100D2C000D04050D050F808BE50E6002050E120CEF
:100D3C0046120C12EF70C6300C04E4120BF2E50FE5
:100D4C006003020C7B7EFF7FFF22E50E6002050E26
:100D5C00120C46D20FD20E120C12EF300F0260D7CB
:100D6C00C0E0120BF2D0E0AC12AD13AE14AF151202
:100D7C000F398C128D138E148F155007120C1CC248
:100D8C000E80D4200D10200E02050F120BCC120673
:030D9C00B5050D8D
:100D9F0012065E020C6AD0E0809A7900800A791000
:100DAF00800679088002790AD20EE50E6002050EE0
:100DBF00E9C0E0120C46EF60DD120C1CBF2D04D20F
:100DCF000B8003BF2B09120C46EF60CA120C12D016
:100DDF00E0B40A028033B40802802EBF30277002BD
:100DEF007408C20EC0E0120C12D0E0BF780280036C
:100DFF00BF5816050ED50E028007D50E04D20E80F1
:100E0F000B741080197002740ABF000AEFF8E4FC2B
:100E1F00FDFEFF020EA5C0E0EF120BF2D0E0F9E4E9
:100E2F00FCFDFEFFE9C0E0ECC0E0EDC0E0EEC0E08D
:100E3F00EFC0E0120C12EFF8D0E0FFD0E0FED0E0F0
:100E4F00FDD0E0FCD0F0E8604DB461004007B47B0A
:100E5F00005002C2E524D0503DFA24F6500724F981
:100E6F005034240AFAEAB5F000502BCFA9F0A42F82
:100E7F00FF92D5E9C5F0CEA4A2D53EFE92D5E9C525
:100E8F00F0CDA4A2D53DFD92D5E9C5F0CCA4A2D555
:100E9F003CFCC20E808EE8C0E0200D2A200E080513
:100EAF000F300B03120650120BCC1206B5050D2096
:100EBF00090B200A0DEE8FF0120631800912065E23
:100ECF008004EF120594D0E0120BF2020C6A200D91
:100EDF0010120BCC1206B5050DE5108511F0120698
:100EEF003180E81206F50D34530DAD580CAB4C0C98
:100EFF00A7420C83480DB14F0DB5440CD4430DA937
:100F0F00490DB5550D56460D56450D56470CAF2A92
:070F1F000EDD4E00000CB3D3
:1002A100E9D2E7C933E833F892D5EDD2E7CD33ECA3
:0702B10033FC5002B2D5221C
:1002B800EC30E7100FBF000C0EBE00080DBD0004A7
:1002C8000BEB6014A2D5EB13FCED92E7FD2274FF53
:1002D800FCFDFEFF22E480F8A2D574FF13FC7D80AC
:0302E800E480EFC0
:1002EB00F920E73624F950037907E4F42402FBE5FF
:1002FB0082158270021583DBF6E024FB501BE9604C
:10030B0014E4F0E582158270021583E004F0B40A60
:0D031B0008E4F0D9EE7401F00A22C2D522E8
:10032800ED33EC3392D5FA602AB4FF33EDC2E77BA4
:10033800FF60067A03794DE4227A03795620D504C2
:100348007A037951224E614E002B494E46002D49C1
:100358004E4600E47A08F0A3DAFC7B00740722C05A
:1003680083C082ECC0E0EDC0E0EEC0E0EFC0E0EAA0
:1003780075F010A4CAABF075F04DA42BFBE435F072
:10038800FCEA2410FAEB34C5FBEC34D9FCEDC2E7E7
:10039800FF75F056A4F42411C5F0F434C58FF0A409
:1003A8002AE5F03BE43CF020E71412050ED0E0FF0C
:1003B800D0E0FED0E0FDD0E0FC1204308014F4045C
:1003C80012050ED0E0FFD0E0FED0E0FDD0E0FC1238
:1003D8000126D082D083E0FAEDD2E7CD33EC332486
:1003E80082FBE4C3CF33CFCE33CECD33CD33DBF373
:1003F8007B0775F00A846004F0A31B0AE5F0F0A3FC
:100408008FF0740AA4FFACF08EF0740AA42CFEAC32
:10041800F050010C8DF0740AA42CFDE435F0F0A323
:05042800DBDE74072279
:100F2600C210C211C212C213F9E4F516F517FCFD80
:100F3600FEFFE9100FEA20120CB42D04D212D322C0
:100F4600B42B02D32224D0504794095041240A30AE
:100F56001315F88517F0740AA42872E74051C5F0F6
:100F6600704D85F017D322D211C0E0E4FBFA792048
:100F76007841120126ECF8EDF9EEFAEFFBD0E0FC31
:100F8600E41202361200353010B41516D322240AA4
:100F9600201320B4FE0720101AD210D32224EB60AF
:100FA6000424E0700EA2129210D213C212D322C3EE
:100FB6000202D6E430130BE517301202F404A21035
:100FC60092123011EA251620D2E5A2E792135002BA
:100FD600F404B4260050D8CCC0E0EDC0E0EEC0E08A
:100FE600EFC0E0EC12050ED0E0FFD0E0FED0E0FD51
:100FF600D0E0FC20130512012680031204303012C3
:06100600031204CDC32219
:10042D000202E0EC5D046005E8590470030202D697
:10043D001202A1580460F6EC4860F2EC7004FDFE67
:10044D00FF22C860DB2481C85009C39860025006A2
:10045D000202DD9850CAF582E9294B4A7005AB823C
:10046D000202CC75F0007C1A7880C3EF9BEE9AEDFA
:10047D0099400DC3EF9BFFEE9AFEED99FDE842F01A
:10048D00DC23ACF0D0E0FFD0E0FED0E0FDAB82206D
:10049D00E7101BEB60BAEC2CFCEF33FFEE33FEEDF7
:1004AD0033FD0202B8E803F830E705C0F075F0003F
:1004BD00EF2FFFEE33FEED33FD40B830E7C280AADB
:1004CD00ED33EC33600A047003BD8004ECB2E7FC3D
:0104DD0022FC
:1004DE003F8000004120000042C80000447A000026
:1004EE00461C400047C35000497424004B189680A8
:1004FE004CBEBC205A0E1BCA6753C21C749DC5AE9F
:10050E00FB60065407601C232312053CEB54386035
:10051E0009120528120537120126ECF8EDF9EEFA4C
:10052E00EFCB22EB12053780F1543803241C9004D4
:10053E00DEFE93FC0EEE93FD0EEE930ECE93FF2297
:030000000212A346
:0C12A300787FE4F6D8FD7581220212EA83
:10054E00BB010689828A83E0225002E722BBFE02AB
:09055E00E32289828A83E49322DE
:10056700BB010CE58229F582E5833AF583E0225049
:1005770006E92582F8E622BBFE06E92582F8E22293
:0D058700E58229F582E5833AF583E49322AD
:10059400BB010689828A83F0225002F722BBFE0146
:0205A400F32240
:1005A600BC000BBE0029EF8DF084FFADF022E4CC39
:1005B600F875F008EF2FFFEE33FEEC33FCEE9DEC02
:1005C600984005FCEE9DFE0FD5F0E9E4CEFD22ED48
:1005D600F8F5F0EE8420D21CFEADF075F008EF2F92
:1005E600FFED33FD4007985006D5F0F222C398FD83
:0505F6000FD5F0EA2220
:1005FB00C2D5EC30E709B2D5E4C39DFDE49CFCEE1B
:10060B0030E715B2D5E4C39FFFE49EFE1205A6C3E7
:10061B00E49DFDE49CFC80031205A630D507C3E4E2
:06062B009FFFE49EFE2289
:10063100BB010A89828A83F0E5F0A3F0225006F714
:0F06410009A7F01922BBFE06F3E5F009F3192211
:0E065000C3E49FFFE49EFEE49DFDE49CFC22BB
:10065E00BB010789828A830206785005E9F80207F2
:0A066E0031BBFE05E9F802073D224A
:0C067800ECF0A3EDF0A3EEF0A3EFF022F5
:10068400A8828583F0D083D08212069B12069B1227
:10069400069B12069BE473E493A3C583C5F0C5834C
:1006A400C8C582C8F0A3C583C5F0C583C8C582C8C0
:0106B4002223
:0906B500E0FBA3E0FAA3E0F92246
:1006BE00F8E0FBA3A3E0F925F0F0E58215827002C5
:0706CE001583E0FA38F02269
:1006D500F8E0FBA3A3E025F0F9F0E58215827002AE
:0706E5001583E038FAF02252
:0906EC00EBF0A3EAF0A3E9F0220F
:1006F500D083D082F8E4937012740193700DA3A394
:1007050093F8740193F5828883E4737402936860A7
:06071500EFA3A3A380DFA7
:1017F70010150B120006BF0D027F0A02183F90005A
:0418070097E0FF2245
:08184E00900097EFF0D2152283
:10180B00EFC394094005EF940E4004EFB42003D3CB
:04181B008001C32263
:10100C00900038EBF0A3EAF0A3E9F0A3E0FBA3E037
:10101C00FAA3E0F912054E70030210B8900038E004
:10102C00FBA3E0FAA3E0F912054E70030210C49082
:10103C00003BE0F9A3E0FAA3E0A3C9F0A3EAF0A314
:10104C00E9F0900038A3E0FAA3E0F9900041EBF04E
:10105C00A3EAF0A3E9F090003EE0FBA3E0FAA3E0E2
:10106C00F912054EFF6026900041E0FBA3E0FAA3C5
:10107C00E0F912054E6F701590003F75F0011207E4
:10108C001B900042E475F00112071B80C990003ED2
:10109C00E0FBA3E0FAA3E0F912054E7002800D907C
:1010AC000039E475F00112071B021028900038E09B
:0F10BC00FBA3E0FAA3E0F9227B007A007900227F
:1012AF00021186E493A3F8E493A34003F68001F2BE
:1012BF0008DFF48029E493A3F85407240CC8C33340
:1012CF00C4540F4420C8834004F456800146F6DF0F
:1012DF00E4800B0102040810204080901706E47E82
:1012EF00019360BCA3FF543F30E509541FFEE49304
:1012FF00A360010ECF54C025E060A840B8E493A3CB
:10130F00FAE493A3F8E493A3C8C582C8CAC583CAF5
:10131F00F0A3C8C582C8CAC583CADFE9DEE780BEAD
:0117260000C2
:10071B00C5F0F8A3E028F0C5F0F8E5821582700269
:06072B001583E038F02206
:0C073100ECF608EDF608EEF608EFF622F4
:0C073D00ECF208EDF208EEF208EFF222F8
:0A0006003098FDAF99C2987E0022E9
:00000001FF
